:100000000C9445000C9462000C9462000C94100453
:100010000C9462000C9462000C9462000C946200D8
:100020000C9462000C9462000C9469020C946200BF
:100030000C9462000C9466000C9462000C946200B4
:100040000C9462000C9462000C9462000C946200A8
:100050000C9462000C9462000C9462000C94620098
:100060000C9462000C9462000C9462000C94620088
:100070000C9462000C9462000C9462003C063E06F4
:100080004006420644064606480611241FBECFEF2E
:10009000CDBFDFE3DEBF18E3A0E0B8E3E9E8FEE0B0
:1000A00002C005900D92A830B107D9F728E3A8E067
:1000B000B8E301C01D92AF32B207E1F70E94BA0463
:1000C0000C9418070C9400000C9428051F920F92B2
:1000D0000FB60F9211242F933F934F935F936F931B
:1000E0007F938F939F93AF93BF93EF93FF938091F1
:1000F0001F38823081F080911F38833061F0809109
:100100001F38843041F080911F38853021F0809174
:100110001F38833649F480912138811103C00E9431
:100120004A0602C00E94F40581E08093460AFF91CE
:10013000EF91BF91AF919F918F917F916F915F915F
:100140004F913F912F910F900FBE0F901F901895D8
:1001500080E00E94E80580E00E94DC0510922638CD
:100160001092273810921F3810921E3810922138A2
:10017000109220388BE1809301380895CF93DF935C
:100180000E94BC05C091200AD091210AC80FD91F36
:100190000E94EB05682F70E0CE010E94CD068F5FB4
:1001A000DF91CF9108950E94EB05682F85E290E0E2
:1001B0000C94F4060E94C5060E94D004E1E1F4E02C
:1001C0008081887F846080838081877F8083089599
:1001D0001092A1000E94D60409980198E1E1F4E090
:1001E0008081886080838081887F84608083089597
:1001F000CF930E94DA000A98029A81E00E94E004FC
:10020000809322389093233810922238109223380A
:10021000C5E081E00E94E00420912238309123382B
:10022000820F931F8093223890932338C15089F70F
:10023000809122389091233865E070E00E94CD06CD
:10024000609322387093233880912238909123381C
:100250008D3F934010F086E025C080912238909128
:1002600023388C3B934010F085E01CC080912238ED
:10027000909123388A39934010F084E013C0809124
:100280002238909123388837934010F083E00AC0D9
:1002900080912238909123388333934010F082E08C
:1002A00001C081E00E94DF050E94E205833010F466
:1002B00082E701C087E60E94E5050A9802988091CE
:1002C000120488608093120480911204887F8460F5
:1002D00080931204CF910C94E8000E94F800499892
:1002E000419A4A98429A4B98439A0E98069A0D98CA
:1002F000059A2B98239A2D98259A289A209A299A1C
:10030000219A2A9A229AE0E4FAE08081816080832F
:1003100008952C982498E4E3F4E08081877F80831B
:100320008081887F80830B980398E3E1F4E08081EB
:10033000877F80838081887F808308952C9824988C
:10034000E4E3F4E08081886080838081887F84603A
:1003500080830B980398E3E1F4E0808188608083D8
:100360008081887F846080830895FF920F931F931C
:10037000CF93DF930E94DA000E948901C091223856
:10038000D091233890910238C91BD10952E0F52E43
:1003900089E00E94E0048C0183E00E94E004077081
:1003A000112723E0000F111F2A95E1F78770992785
:1003B000800F911FC827D92736E0CC0FDD1F3A9553
:1003C000E1F783E00E94E0048C0189E00E94E004F0
:1003D0000770112743E0000F111F4A95E1F787705E
:1003E0009927080F191FC00FD11F0091200A1091E3
:1003F000210AC027D127FA94F110CACF0E949E018A
:100400000E94E800CE01DF91CF911F910F91FF90E4
:100410000C949D0581E08093213810921D38109234
:100420001A388091400A8E7F8093400A8091000A9A
:100430008E7F8093000A0E94F4050E94A800049A0F
:100440000C9880912838909129380196809328380B
:10045000909329380A9790F080911404887F8460E3
:10046000809314040E94B50180911404887F8160F8
:100470008093140410922838109229380E94E800C2
:10048000109220041092040410920004109244046C
:100490001092400410922404E0E1F4E08CE0819397
:1004A000878F87AFE83194E0F907C9F70498809106
:1004B0001404877F8093140480911404887F8160E2
:1004C0008093140482B18295817080931C38889542
:1004D00008951F920F920FB60F9211242F933F93FE
:1004E0004F935F936F937F938F939F93AF93BF933C
:1004F000CF93EF93FF9380911F38833009F468C046
:1005000028F4813061F0823059F175C1853009F4E9
:100510002CC108F4CBC0833609F450C16CC1149BC4
:100520001AC08091263890912738019680932638FA
:10053000909327388091263890912738889708F42F
:100540005AC1109226381092273882E080931F38C3
:100550000E946D0150C110922638109227384BC16D
:1005600010921838109219388091163890911738D7
:1005700001968B30910528F48093163890931738A4
:1005800016C010921638109217380E94F805809104
:1005900000380E94EE05C0910038CF5FC09300384C
:1005A0000E94EB058C1718F481E08093003880914D
:1005B000143890911538019680931438909315381B
:1005C0008D3D954008F417C183E080931F3813C117
:1005D000109214381092153810921638109217385D
:1005E0008091183890911938892B21F40E94BE000F
:1005F0008093023880911838909119380196809331
:100600001838909319382091013830E082179307F9
:1006100008F4F1C081E090E0809318389093193885
:10062000809101388932C0F4C0910238CF5FC09305
:1006300002380E94EB058C1718F481E08093023891
:100640000E94F805809102380E94EE0580910138E1
:100650008B5F80930138CFC010921D388091203875
:100660008F5F809320388A3038F49091213881E070
:10067000892780932138BFC081E080932138809101
:100680001A38813061F41092213883E080931E384B
:1006900085E080931F3882E00E94E805ACC0149981
:1006A000AAC080911A388111A6C085C080911B38DC
:1006B00081113BC08091123890911338019680933C
:1006C000123890931338459750F09091213881E07B
:1006D0008927809321381092123810921338809114
:1006E00010389091113801968093103890931138FA
:1006F000089730F00E94F8051092103810921138C7
:1007000080912438909125380196809324389093D5
:1007100025388039914008F46EC010922438109228
:10072000253881E080931B3866C01092213887E617
:100730000E94F1058091243890912538019680938C
:100740002438909325388334910508F454C01092CE
:1007500024381092253810921B380E94D3000E9432
:100760000A0282E70E94F10546C00E94E20580FF6E
:1007700011C080910E3890910F38019680930E38F9
:1007800090930F38829730F00E94D50510920E3862
:1007900010920F3880910C3890910D380196863D5B
:1007A000910528F480930C3890930D3824C0109252
:1007B0000C3810920D380E940A021DC080910A3830
:1007C00090910B38019680930A3890930B388937B3
:1007D000910588F00E94F80510920A3810920B38A3
:1007E0008091083890910938019680930838909349
:1007F0000938459700F780E180930B0AFF91EF914C
:10080000CF91BF91AF919F918F917F916F915F91A8
:100810004F913F912F910F900FBE0F901F90189501
:100820001F920F920FB60F9211242F933F934F9365
:100830005F936F937F938F939F93AF93BF93CF9368
:10084000EF93FF9380911F3881111AC080911E3859
:10085000811116C0149B14C080911C38813019F48A
:100860000E940A0245C080911F3880931E3881E0A3
:1008700080931F388091000A81608093000A38C0FD
:1008800080911F38813051F480911E38811106C04B
:1008900080911F3880931E3884E00DC080911F38EE
:1008A000823061F480911E38811108C080911F3818
:1008B00080931E3883E080931F381AC080911F38C0
:1008C000833049F4C0911E38C23029F40E94A80038
:1008D000C0931F380DC080911F38843021F480915F
:1008E0001E38833029F080911F38833009F0B8CF4B
:1008F0008DEF83B9FF91EF91CF91BF91AF919F9110
:100900008F917F916F915F914F913F912F910F90B8
:100910000FBE0F901F90189596B1892F807194FD8E
:100920000AC0509909C083E00E94E80583E68093DD
:100930001F3881E0089580E008952C982498E4E31E
:10094000F4E080818860808380818F7780838081DC
:10095000887F8460808348984098E0E5F4E0808157
:100960008860808380818F7780838081887F8460A6
:10097000808308950E9464008DEC9BEA0E949D058F
:100980000E948C04811104C00E949D040E940A02EE
:10099000FFCFE0E0F6E081E08683808380E0089589
:1009A000E0E0F6E08081816080830895E0E0F6E099
:1009B00080818E7F8083089580910B0681700895D9
:1009C0008093060681E0809308060E94DC04882359
:1009D000E1F3209110063091110690910B06916081
:1009E00090930B06C901089580E0089547E168EDF2
:1009F00081E690E00E94D10580E00895789480E03F
:100A00000895E0E1F4E0808188608193E83184E03A
:100A1000F807C9F7E0E3F4E0808188608193E83368
:100A200084E0F807C9F7E0E5F4E08081886081930D
:100A3000E83584E0F807C9F70895E1E1F4E0808142
:100A4000887F846080838081877F80830C94C90441
:100A50000E94010508980098E0E1F4E08081886038
:100A6000808380818F7780838081887F846080838A
:100A70000A980298E2E1F4E08081886080838081B6
:100A8000887F846080830B980398E3E1F4E08081A1
:100A90008860808380818F7780838081887F846075
:100AA00080830F980798E7E1F4E080818860808375
:100AB00080818F7780838081887F846080830C9899
:100AC0000498E4E1F4E08081877F808380818F77E0
:100AD00080838081887F816080832498E4E3F4E0D0
:100AE0008081886080834098E0E5F4E080818860C0
:100AF00080834998419A4A98429A4B98439A0E9813
:100B0000069A0D98059A2B98239A2D98259A289A3B
:100B1000209A299A219A2A9A229A0E94F6040E94DF
:100B2000C5060E941D050E94AC060E94BB060E94DD
:100B3000FE040E94A7060C94F404CF93DF93EC010B
:100B400080E090E00E94EF068C279D27BC01617039
:100B500077277195619571096627747B96958795BE
:100B60006827792760932A3870932B3880E090E0CB
:100B7000DF91CF910C94130720912A3830912B38B4
:100B8000C901817099279195819591098827947B56
:100B9000369527958227932780932A3890932B3870
:100BA0000895FC0164BF4083089590912D3881E041
:100BB000892780932D38089580932D380895809348
:100BC0000438089580910438089580930338089577
:100BD00080932E38089580910738089580930638C1
:100BE000089580930538089587E08093250408953B
:100BF00080910438833020F480912E38833069F45A
:100C000080910538873639F0823719F0823641F401
:100C100004C087E603C082E601C082E780930538FE
:100C20000895E82F673671F0623739F0623681F443
:100C300083E08093250484E009C086E08093250446
:100C400081E004C085E08093250482E0809326043F
:100C500088E2809326048EE08093460480E68093A9
:100C600006048E2F90E0FC013197E730F10588F4FF
:100C7000E25CFF4F0C94E106499A08954A9A089560
:100C80004B9A08950E9A08950D9A08952B9A0895F7
:100C90002D9A0895CF9380912E38823041F1833080
:100CA00009F443C0811151C0C0912C38809106389D
:100CB00090E0019726E0289FF001299FF00D112474
:100CC000E25AF147EC0FF11D6091053880810E94D6
:100CD00011062091073830E0CF5FC0932C388C2F5D
:100CE00090E0821793078CF110922C382EC0C0919F
:100CF0002C388091043890E020912D38821B910986
:100D000026E0289FF001299FF00D1124EC5CF147AB
:100D1000EC0FF11D6091033880810E941106CF5FB6
:100D2000C0932C38C63000F710C0C0912C38EC2F7F
:100D3000F0E0EE57F1476091053880810E9411067E
:100D4000CF5FC0932C38C73078F6CF91089585E0F7
:100D50008093500080E00895E0E0FAE08AE698E1B0
:100D600080A791A720E12183228786A397A381E012
:100D7000808380E00895E0E4FAE081E090E08487F9
:100D800095878583808380E0089580E48093A00028
:100D900082E08093A10080E00895AA1BBB1B51E173
:100DA00007C0AA1FBB1FA617B70710F0A61BB70BDB
:100DB000881F991F5A95A9F780959095BC01CD0180
:100DC0000895EE0FFF1F0590F491E02D099403D0D4
:100DD000808199270895FC01E050FC4E08950E94FF
:100DE000EB06808191810895262F0E94EB060080FA
:100DF000021619F00E940007019701970895262F07
:100E0000AF93BF93E0E0F0E1328131FDFDCFDC0133
:100E1000A050BC4E2C932DE924BF23E020830196E3
:100E2000BF91AF9108950E94FF06272F0C940007F1
:040E3000F894FFCF64
:100E34000000000000000607000000000607000094
:100E44000000020605070000020605070000010273
:100E5400060305070102060305070400000000005D
:100E64000107000000000304060000000103060758
:100E7400000001030607040001020305060701023E
:050E8400030405060750
:080E8900011B01670172010663
:00000001FF
